{
  "transactions": [
    {
      "hash": null,
      "transactionType": "CALL",
      "contractName": null,
      "contractAddress": "0x8c1d5edf101fde8d7382115f30e98c095752526b",
      "function": "registerInstitution(string,string,string,string)",
      "arguments": [
        "University of Lagos",
        "Nigeria",
        "https://unilag.edu.ng",
        "admin@unilag.edu.ng"
      ],
      "transaction": {
        "from": "0xc4ac5014abf29e205e15a53f71127ac3793035e7",
        "to": "0x8c1d5edf101fde8d7382115f30e98c095752526b",
        "gas": "0x475b5",
        "value": "0x0",
        "input": "0x49dd6f03000000000000000000000000000000000000000000000000000000000000008000000000000000000000000000000000000000000000000000000000000000c0000000000000000000000000000000000000000000000000000000000000010000000000000000000000000000000000000000000000000000000000000001400000000000000000000000000000000000000000000000000000000000000013556e6976657273697479206f66204c61676f730000000000000000000000000000000000000000000000000000000000000000000000000000000000000000074e69676572696100000000000000000000000000000000000000000000000000000000000000000000000000000000000000000000000000000000000000001568747470733a2f2f756e696c61672e6564752e6e670000000000000000000000000000000000000000000000000000000000000000000000000000000000001361646d696e40756e696c61672e6564752e6e6700000000000000000000000000",
        "nonce": "0x0",
        "chainId": "0x13882"
      },
      "additionalContracts": [],
      "isFixedGasLimit": false
    }
  ],
  "receipts": [],
  "libraries": [],
  "pending": [],
  "returns": {},
  "timestamp": 1762812431626,
  "chain": 80002,
  "commit": "7b8267a"
}