{
  "transactions": [
    {
      "hash": "0x1779fb3bcfbac4d3db052c5ee3adb0c64e859b825d1b00d5627803f4a2ee4bea",
      "transactionType": "CALL",
      "contractName": null,
      "contractAddress": "0xb86e6989cd27aab303641c269f1ac95637fd4890",
      "function": "VerifyInstitution(address)",
      "arguments": [
        "0xC4aC5014AbF29e205E15A53f71127Ac3793035E7"
      ],
      "transaction": {
        "from": "0xc1b568dd5fa31ed0cec48f0c163fc0edadf078df",
        "to": "0xb86e6989cd27aab303641c269f1ac95637fd4890",
        "gas": "0x1e3e5",
        "value": "0x0",
        "input": "0xd96827f3000000000000000000000000c4ac5014abf29e205e15a53f71127ac3793035e7",
        "nonce": "0xa",
        "chainId": "0xaa36a7"
      },
      "additionalContracts": [],
      "isFixedGasLimit": false
    }
  ],
  "receipts": [
    {
      "status": "0x1",
      "cumulativeGasUsed": "0x90ab08",
      "logs": [
        {
          "address": "0xb86e6989cd27aab303641c269f1ac95637fd4890",
          "topics": [
            "0x932d473de5d8b23d5b5c9e92442ca033587413a348fc4ae1d253fb80b290e876",
            "0x000000000000000000000000c4ac5014abf29e205e15a53f71127ac3793035e7"
          ],
          "data": "0x000000000000000000000000000000000000000000000000000000000000008000000000000000000000000000000000000000000000000000000000000000c0000000000000000000000000000000000000000000000000000000000000010000000000000000000000000000000000000000000000000000000000000001400000000000000000000000000000000000000000000000000000000000000013556e6976657273697479206f66204c61676f730000000000000000000000000000000000000000000000000000000000000000000000000000000000000000074e69676572696100000000000000000000000000000000000000000000000000000000000000000000000000000000000000000000000000000000000000001568747470733a2f2f756e696c61672e6564752e6e670000000000000000000000000000000000000000000000000000000000000000000000000000000000001361646d696e40756e696c61672e6564752e6e6700000000000000000000000000",
          "blockHash": "0xeadec37f91473a316c58f6812e5ab7baf1b9852908654aa70c8b3795b6b3c851",
          "blockNumber": "0x9296f6",
          "blockTimestamp": "0x69132b94",
          "transactionHash": "0x1779fb3bcfbac4d3db052c5ee3adb0c64e859b825d1b00d5627803f4a2ee4bea",
          "transactionIndex": "0x4f",
          "logIndex": "0x76",
          "removed": false
        }
      ],
      "logsBloom": "0x00000000000000000000000000000000000000000000000000000000000000000000000080000000000000000000000000000000000000000000000000000000000000000000000000000000000000000000100000000000000000000000000000000000000000000048000000000000000000000000000000000000000000000000000000000000000000000000000001000000000000000000008000000000000000000000000000000000000000000000000000000000000000000000000000000000000000000000200000000000000000000000000000000000000000000004000000000000080000000000000000000000000000000000000000000000",
      "type": "0x2",
      "transactionHash": "0x1779fb3bcfbac4d3db052c5ee3adb0c64e859b825d1b00d5627803f4a2ee4bea",
      "transactionIndex": "0x4f",
      "blockHash": "0xeadec37f91473a316c58f6812e5ab7baf1b9852908654aa70c8b3795b6b3c851",
      "blockNumber": "0x9296f6",
      "gasUsed": "0x15e55",
      "effectiveGasPrice": "0xf424c",
      "from": "0xc1b568dd5fa31ed0cec48f0c163fc0edadf078df",
      "to": "0xb86e6989cd27aab303641c269f1ac95637fd4890",
      "contractAddress": null
    }
  ],
  "libraries": [],
  "pending": [],
  "returns": {},
  "timestamp": 1762864020291,
  "chain": 11155111,
  "commit": "4aa7650"
}