{
  "transactions": [
    {
      "hash": "0xc957c67121c28765fd1b3e9b767dea87b652a4f03d527c872d8804a4a673ef49",
      "transactionType": "CALL",
      "contractName": null,
      "contractAddress": "0xb86e6989cd27aab303641c269f1ac95637fd4890",
      "function": "registerInstitution(string,string,string,string)",
      "arguments": [
        "University of Lagos",
        "Nigeria",
        "https://unilag.edu.ng",
        "admin@unilag.edu.ng"
      ],
      "transaction": {
        "from": "0xc4ac5014abf29e205e15a53f71127ac3793035e7",
        "to": "0xb86e6989cd27aab303641c269f1ac95637fd4890",
        "gas": "0x4bb47",
        "value": "0x0",
        "input": "0x49dd6f03000000000000000000000000000000000000000000000000000000000000008000000000000000000000000000000000000000000000000000000000000000c0000000000000000000000000000000000000000000000000000000000000010000000000000000000000000000000000000000000000000000000000000001400000000000000000000000000000000000000000000000000000000000000013556e6976657273697479206f66204c61676f730000000000000000000000000000000000000000000000000000000000000000000000000000000000000000074e69676572696100000000000000000000000000000000000000000000000000000000000000000000000000000000000000000000000000000000000000001568747470733a2f2f756e696c61672e6564752e6e670000000000000000000000000000000000000000000000000000000000000000000000000000000000001361646d696e40756e696c61672e6564752e6e6700000000000000000000000000",
        "nonce": "0x0",
        "chainId": "0xaa36a7"
      },
      "additionalContracts": [],
      "isFixedGasLimit": false
    }
  ],
  "receipts": [
    {
      "status": "0x1",
      "cumulativeGasUsed": "0xf2a873",
      "logs": [
        {
          "address": "0xb86e6989cd27aab303641c269f1ac95637fd4890",
          "topics": [
            "0x8bdaebea7e657039a3cefa8226cdb0aaa12cd7ab70ca769421fcce1b6170316e",
            "0x000000000000000000000000c4ac5014abf29e205e15a53f71127ac3793035e7"
          ],
          "data": "0x000000000000000000000000000000000000000000000000000000000000008000000000000000000000000000000000000000000000000000000000000000c0000000000000000000000000000000000000000000000000000000000000010000000000000000000000000000000000000000000000000000000000000001400000000000000000000000000000000000000000000000000000000000000013556e6976657273697479206f66204c61676f730000000000000000000000000000000000000000000000000000000000000000000000000000000000000000074e69676572696100000000000000000000000000000000000000000000000000000000000000000000000000000000000000000000000000000000000000001568747470733a2f2f756e696c61672e6564752e6e670000000000000000000000000000000000000000000000000000000000000000000000000000000000001361646d696e40756e696c61672e6564752e6e6700000000000000000000000000",
          "blockHash": "0x4f27f411f9558a6559738e50ab64c9673d336917e1ab3824bc4ec47a6ae95eb1",
          "blockNumber": "0x9296d2",
          "blockTimestamp": "0x691329e4",
          "transactionHash": "0xc957c67121c28765fd1b3e9b767dea87b652a4f03d527c872d8804a4a673ef49",
          "transactionIndex": "0x52",
          "logIndex": "0xbc",
          "removed": false
        }
      ],
      "logsBloom": "0x00000000000000000000000000000000000000000000000000000000000000000000200080000000000000000000000000000000400000000000000000000000000000000000000000000000000000000000100000000000000000000000000000000000000000000000000000000000000000000000000000000000000000000000000000000000000000000000000001000000000000000000008000000000000000000000000000000000000000000000000000000000000000000000000000000000000000000000200000000000000000000000000000000000000000000004000000000000000000000000000000000000002000000000000000000000",
      "type": "0x2",
      "transactionHash": "0xc957c67121c28765fd1b3e9b767dea87b652a4f03d527c872d8804a4a673ef49",
      "transactionIndex": "0x52",
      "blockHash": "0x4f27f411f9558a6559738e50ab64c9673d336917e1ab3824bc4ec47a6ae95eb1",
      "blockNumber": "0x9296d2",
      "gasUsed": "0x33c3a",
      "effectiveGasPrice": "0xf4250",
      "from": "0xc4ac5014abf29e205e15a53f71127ac3793035e7",
      "to": "0xb86e6989cd27aab303641c269f1ac95637fd4890",
      "contractAddress": null
    }
  ],
  "libraries": [],
  "pending": [],
  "returns": {},
  "timestamp": 1762863588920,
  "chain": 11155111,
  "commit": "4aa7650"
}